{
  "_format": "hh-sol-artifact-1",
  "contractName": "Crowdfunding",
  "sourceName": "contracts/Crowdfunding.sol",
  "abi": [
    {
      "anonymous": false,
      "inputs": [
        {
          "indexed": false,
          "internalType": "string",
          "name": "name",
          "type": "string"
        },
        {
          "indexed": false,
          "internalType": "string",
          "name": "description",
          "type": "string"
        },
        {
          "indexed": false,
          "internalType": "uint256",
          "name": "campaignId",
          "type": "uint256"
        },
        {
          "indexed": false,
          "internalType": "address",
          "name": "benefactor",
          "type": "address"
        },
        {
          "indexed": false,
          "internalType": "uint256",
          "name": "goal",
          "type": "uint256"
        },
        {
          "indexed": false,
          "internalType": "uint256",
          "name": "deadline",
          "type": "uint256"
        }
      ],
      "name": "CampaignCreated",
      "type": "event"
    },
    {
      "anonymous": false,
      "inputs": [
        {
          "indexed": false,
          "internalType": "uint256",
          "name": "campaignId",
          "type": "uint256"
        },
        {
          "indexed": false,
          "internalType": "address",
          "name": "donor",
          "type": "address"
        },
        {
          "indexed": false,
          "internalType": "uint256",
          "name": "amount",
          "type": "uint256"
        }
      ],
      "name": "DonationReceived",
      "type": "event"
    },
    {
      "anonymous": false,
      "inputs": [
        {
          "indexed": false,
          "internalType": "uint256",
          "name": "campaignId",
          "type": "uint256"
        },
        {
          "indexed": false,
          "internalType": "address",
          "name": "benefactor",
          "type": "address"
        },
        {
          "indexed": false,
          "internalType": "uint256",
          "name": "amount",
          "type": "uint256"
        }
      ],
      "name": "FundsTransferred",
      "type": "event"
    },
    {
      "inputs": [],
      "name": "campaignCount",
      "outputs": [
        {
          "internalType": "uint256",
          "name": "",
          "type": "uint256"
        }
      ],
      "stateMutability": "view",
      "type": "function"
    },
    {
      "inputs": [
        {
          "internalType": "uint256",
          "name": "",
          "type": "uint256"
        }
      ],
      "name": "campaigns",
      "outputs": [
        {
          "internalType": "string",
          "name": "name",
          "type": "string"
        },
        {
          "internalType": "string",
          "name": "description",
          "type": "string"
        },
        {
          "internalType": "address payable",
          "name": "benefactor",
          "type": "address"
        },
        {
          "internalType": "uint256",
          "name": "goal",
          "type": "uint256"
        },
        {
          "internalType": "uint256",
          "name": "deadline",
          "type": "uint256"
        },
        {
          "internalType": "uint256",
          "name": "amountCollected",
          "type": "uint256"
        },
        {
          "internalType": "bool",
          "name": "fundsTransferred",
          "type": "bool"
        }
      ],
      "stateMutability": "view",
      "type": "function"
    },
    {
      "inputs": [
        {
          "internalType": "uint256",
          "name": "_campaignId",
          "type": "uint256"
        }
      ],
      "name": "contribute",
      "outputs": [],
      "stateMutability": "payable",
      "type": "function"
    },
    {
      "inputs": [
        {
          "internalType": "uint256",
          "name": "",
          "type": "uint256"
        },
        {
          "internalType": "address",
          "name": "",
          "type": "address"
        }
      ],
      "name": "contributions",
      "outputs": [
        {
          "internalType": "uint256",
          "name": "",
          "type": "uint256"
        }
      ],
      "stateMutability": "view",
      "type": "function"
    },
    {
      "inputs": [
        {
          "internalType": "string",
          "name": "_name",
          "type": "string"
        },
        {
          "internalType": "string",
          "name": "_description",
          "type": "string"
        },
        {
          "internalType": "uint256",
          "name": "_goal",
          "type": "uint256"
        },
        {
          "internalType": "uint256",
          "name": "_durationInSeconds",
          "type": "uint256"
        }
      ],
      "name": "createCampaign",
      "outputs": [],
      "stateMutability": "nonpayable",
      "type": "function"
    },
    {
      "inputs": [
        {
          "internalType": "uint256",
          "name": "_campaignId",
          "type": "uint256"
        }
      ],
      "name": "getCampaignDetails",
      "outputs": [
        {
          "internalType": "address",
          "name": "benefactor",
          "type": "address"
        },
        {
          "internalType": "uint256",
          "name": "goal",
          "type": "uint256"
        },
        {
          "internalType": "uint256",
          "name": "deadline",
          "type": "uint256"
        },
        {
          "internalType": "uint256",
          "name": "amountCollected",
          "type": "uint256"
        },
        {
          "internalType": "bool",
          "name": "fundsTransferred",
          "type": "bool"
        }
      ],
      "stateMutability": "view",
      "type": "function"
    },
    {
      "inputs": [
        {
          "internalType": "uint256",
          "name": "_campaignId",
          "type": "uint256"
        }
      ],
      "name": "transferFunds",
      "outputs": [],
      "stateMutability": "nonpayable",
      "type": "function"
    }
  ],
  "bytecode": "0x608060405260008055348015601357600080fd5b50611799806100236000396000f3fe6080604052600436106100705760003560e01c80637274e30d1161004e5780637274e30d1461011e578063a318f26914610149578063c1cbbca714610172578063d993de621461018e57610070565b8063133ae30b14610075578063141961bc1461009e5780633d891f59146100e1575b600080fd5b34801561008157600080fd5b5061009c60048036038101906100979190610b62565b6101cf565b005b3480156100aa57600080fd5b506100c560048036038101906100c09190610b62565b610435565b6040516100d89796959493929190610c8a565b60405180910390f35b3480156100ed57600080fd5b5061010860048036038101906101039190610d45565b6105b4565b6040516101159190610d85565b60405180910390f35b34801561012a57600080fd5b506101336105d9565b6040516101409190610d85565b60405180910390f35b34801561015557600080fd5b50610170600480360381019061016b9190610ed5565b6105df565b005b61018c60048036038101906101879190610b62565b610799565b005b34801561019a57600080fd5b506101b560048036038101906101b09190610b62565b61090f565b6040516101c6959493929190610f83565b60405180910390f35b806001600082815260200190815260200160002060040154421015610229576040517f08c379a000000000000000000000000000000000000000000000000000000000815260040161022090611022565b60405180910390fd5b60006001600084815260200190815260200160002090508060060160009054906101000a900460ff1615610292576040517f08c379a0000000000000000000000000000000000000000000000000000000008152600401610289906110b4565b60405180910390fd5b80600401544210156102d9576040517f08c379a00000000000000000000000000000000000000000000000000000000081526004016102d090611120565b60405180910390fd5b60008160050154905060018260060160006101000a81548160ff02191690831515021790555060008260020160009054906101000a900473ffffffffffffffffffffffffffffffffffffffff1673ffffffffffffffffffffffffffffffffffffffff168260405161034990611171565b60006040518083038185875af1925050503d8060008114610386576040519150601f19603f3d011682016040523d82523d6000602084013e61038b565b606091505b50509050806103cf576040517f08c379a00000000000000000000000000000000000000000000000000000000081526004016103c6906111d2565b60405180910390fd5b7fe90ae330e5aefc2a73ddff0dd88bcaf8f4a0629d6553a2a85b22cac3d5f4a19e858460020160009054906101000a900473ffffffffffffffffffffffffffffffffffffffff168460405161042693929190611251565b60405180910390a15050505050565b6001602052806000526040600020600091509050806000018054610458906112b7565b80601f0160208091040260200160405190810160405280929190818152602001828054610484906112b7565b80156104d15780601f106104a6576101008083540402835291602001916104d1565b820191906000526020600020905b8154815290600101906020018083116104b457829003601f168201915b5050505050908060010180546104e6906112b7565b80601f0160208091040260200160405190810160405280929190818152602001828054610512906112b7565b801561055f5780601f106105345761010080835404028352916020019161055f565b820191906000526020600020905b81548152906001019060200180831161054257829003601f168201915b5050505050908060020160009054906101000a900473ffffffffffffffffffffffffffffffffffffffff16908060030154908060040154908060050154908060060160009054906101000a900460ff16905087565b6002602052816000526040600020602052806000526040600020600091509150505481565b60005481565b60008211610622576040517f08c379a000000000000000000000000000000000000000000000000000000000815260040161061990611334565b60405180910390fd5b60016000808282546106349190611383565b925050819055506040518060e001604052808581526020018481526020013373ffffffffffffffffffffffffffffffffffffffff1681526020018381526020018281526020016000815260200160001515815250600160008054815260200190815260200160002060008201518160000190816106b19190611559565b5060208201518160010190816106c79190611559565b5060408201518160020160006101000a81548173ffffffffffffffffffffffffffffffffffffffff021916908373ffffffffffffffffffffffffffffffffffffffff160217905550606082015181600301556080820151816004015560a0820151816005015560c08201518160060160006101000a81548160ff0219169083151502179055509050507f5b3c0e7db94a27fd646768d6932e2d43a3093b3419db595bacd68f80ccdc534d848460005433868660405161078b9695949392919061162b565b60405180910390a150505050565b8060016000828152602001908152602001600020600401544210156107f3576040517f08c379a00000000000000000000000000000000000000000000000000000000081526004016107ea90611022565b60405180910390fd5b60003411610836576040517f08c379a000000000000000000000000000000000000000000000000000000000815260040161082d9061170c565b60405180910390fd5b6000600160008481526020019081526020016000209050348160050160008282546108619190611383565b92505081905550346002600085815260200190815260200160002060003373ffffffffffffffffffffffffffffffffffffffff1673ffffffffffffffffffffffffffffffffffffffff16815260200190815260200160002060008282546108c89190611383565b925050819055507f0b5b4c52969ff7329ecf7ee536409fda87812b15a8622bc6e8cdeab3aee14a268333346040516109029392919061172c565b60405180910390a1505050565b600080600080600080600160008881526020019081526020016000206040518060e0016040529081600082018054610946906112b7565b80601f0160208091040260200160405190810160405280929190818152602001828054610972906112b7565b80156109bf5780601f10610994576101008083540402835291602001916109bf565b820191906000526020600020905b8154815290600101906020018083116109a257829003601f168201915b505050505081526020016001820180546109d8906112b7565b80601f0160208091040260200160405190810160405280929190818152602001828054610a04906112b7565b8015610a515780601f10610a2657610100808354040283529160200191610a51565b820191906000526020600020905b815481529060010190602001808311610a3457829003601f168201915b505050505081526020016002820160009054906101000a900473ffffffffffffffffffffffffffffffffffffffff1673ffffffffffffffffffffffffffffffffffffffff1673ffffffffffffffffffffffffffffffffffffffff1681526020016003820154815260200160048201548152602001600582015481526020016006820160009054906101000a900460ff16151515158152505090508060400151816060015182608001518360a001518460c00151955095509550955095505091939590929450565b6000604051905090565b600080fd5b600080fd5b6000819050919050565b610b3f81610b2c565b8114610b4a57600080fd5b50565b600081359050610b5c81610b36565b92915050565b600060208284031215610b7857610b77610b22565b5b6000610b8684828501610b4d565b91505092915050565b600081519050919050565b600082825260208201905092915050565b60005b83811015610bc9578082015181840152602081019050610bae565b60008484015250505050565b6000601f19601f8301169050919050565b6000610bf182610b8f565b610bfb8185610b9a565b9350610c0b818560208601610bab565b610c1481610bd5565b840191505092915050565b600073ffffffffffffffffffffffffffffffffffffffff82169050919050565b6000610c4a82610c1f565b9050919050565b610c5a81610c3f565b82525050565b610c6981610b2c565b82525050565b60008115159050919050565b610c8481610c6f565b82525050565b600060e0820190508181036000830152610ca4818a610be6565b90508181036020830152610cb88189610be6565b9050610cc76040830188610c51565b610cd46060830187610c60565b610ce16080830186610c60565b610cee60a0830185610c60565b610cfb60c0830184610c7b565b98975050505050505050565b6000610d1282610c1f565b9050919050565b610d2281610d07565b8114610d2d57600080fd5b50565b600081359050610d3f81610d19565b92915050565b60008060408385031215610d5c57610d5b610b22565b5b6000610d6a85828601610b4d565b9250506020610d7b85828601610d30565b9150509250929050565b6000602082019050610d9a6000830184610c60565b92915050565b600080fd5b600080fd5b7f4e487b7100000000000000000000000000000000000000000000000000000000600052604160045260246000fd5b610de282610bd5565b810181811067ffffffffffffffff82111715610e0157610e00610daa565b5b80604052505050565b6000610e14610b18565b9050610e208282610dd9565b919050565b600067ffffffffffffffff821115610e4057610e3f610daa565b5b610e4982610bd5565b9050602081019050919050565b82818337600083830152505050565b6000610e78610e7384610e25565b610e0a565b905082815260208101848484011115610e9457610e93610da5565b5b610e9f848285610e56565b509392505050565b600082601f830112610ebc57610ebb610da0565b5b8135610ecc848260208601610e65565b91505092915050565b60008060008060808587031215610eef57610eee610b22565b5b600085013567ffffffffffffffff811115610f0d57610f0c610b27565b5b610f1987828801610ea7565b945050602085013567ffffffffffffffff811115610f3a57610f39610b27565b5b610f4687828801610ea7565b9350506040610f5787828801610b4d565b9250506060610f6887828801610b4d565b91505092959194509250565b610f7d81610d07565b82525050565b600060a082019050610f986000830188610f74565b610fa56020830187610c60565b610fb26040830186610c60565b610fbf6060830185610c60565b610fcc6080830184610c7b565b9695505050505050565b7f43616d706169676e206973207374696c6c206163746976652e00000000000000600082015250565b600061100c601983610b9a565b915061101782610fd6565b602082019050919050565b6000602082019050818103600083015261103b81610fff565b9050919050565b7f46756e6473206861766520616c7265616479206265656e207472616e7366657260008201527f7265642e00000000000000000000000000000000000000000000000000000000602082015250565b600061109e602483610b9a565b91506110a982611042565b604082019050919050565b600060208201905081810360008301526110cd81611091565b9050919050565b7f446561646c696e65206e6f742079657420726561636865640000000000000000600082015250565b600061110a601883610b9a565b9150611115826110d4565b602082019050919050565b60006020820190508181036000830152611139816110fd565b9050919050565b600081905092915050565b50565b600061115b600083611140565b91506111668261114b565b600082019050919050565b600061117c8261114e565b9150819050919050565b7f4661696c656420746f2073656e64204574686572000000000000000000000000600082015250565b60006111bc601483610b9a565b91506111c782611186565b602082019050919050565b600060208201905081810360008301526111eb816111af565b9050919050565b6000819050919050565b600061121761121261120d84610c1f565b6111f2565b610c1f565b9050919050565b6000611229826111fc565b9050919050565b600061123b8261121e565b9050919050565b61124b81611230565b82525050565b60006060820190506112666000830186610c60565b6112736020830185611242565b6112806040830184610c60565b949350505050565b7f4e487b7100000000000000000000000000000000000000000000000000000000600052602260045260246000fd5b600060028204905060018216806112cf57607f821691505b6020821081036112e2576112e1611288565b5b50919050565b7f476f616c206d7573742062652067726561746572207468616e207a65726f2e00600082015250565b600061131e601f83610b9a565b9150611329826112e8565b602082019050919050565b6000602082019050818103600083015261134d81611311565b9050919050565b7f4e487b7100000000000000000000000000000000000000000000000000000000600052601160045260246000fd5b600061138e82610b2c565b915061139983610b2c565b92508282019050808211156113b1576113b0611354565b5b92915050565b60008190508160005260206000209050919050565b60006020601f8301049050919050565b600082821b905092915050565b6000600883026114197fffffffffffffffffffffffffffffffffffffffffffffffffffffffffffffffff826113dc565b61142386836113dc565b95508019841693508086168417925050509392505050565b600061145661145161144c84610b2c565b6111f2565b610b2c565b9050919050565b6000819050919050565b6114708361143b565b61148461147c8261145d565b8484546113e9565b825550505050565b600090565b61149961148c565b6114a4818484611467565b505050565b5b818110156114c8576114bd600082611491565b6001810190506114aa565b5050565b601f82111561150d576114de816113b7565b6114e7846113cc565b810160208510156114f6578190505b61150a611502856113cc565b8301826114a9565b50505b505050565b600082821c905092915050565b600061153060001984600802611512565b1980831691505092915050565b6000611549838361151f565b9150826002028217905092915050565b61156282610b8f565b67ffffffffffffffff81111561157b5761157a610daa565b5b61158582546112b7565b6115908282856114cc565b600060209050601f8311600181146115c357600084156115b1578287015190505b6115bb858261153d565b865550611623565b601f1984166115d1866113b7565b60005b828110156115f9578489015182556001820191506020850194506020810190506115d4565b868310156116165784890151611612601f89168261151f565b8355505b6001600288020188555050505b505050505050565b600060c08201905081810360008301526116458189610be6565b905081810360208301526116598188610be6565b90506116686040830187610c60565b6116756060830186610f74565b6116826080830185610c60565b61168f60a0830184610c60565b979650505050505050565b7f436f6e747269627574696f6e20616d6f756e74206d757374206265206772656160008201527f746572207468616e207a65726f2e000000000000000000000000000000000000602082015250565b60006116f6602e83610b9a565b91506117018261169a565b604082019050919050565b60006020820190508181036000830152611725816116e9565b9050919050565b60006060820190506117416000830186610c60565b61174e6020830185610f74565b61175b6040830184610c60565b94935050505056fea264697066735822122040ac18873c6ef11b1eb82f2e457b8c8e047591e9675384dc4bd9f37ba27bc28164736f6c634300081b0033",
  "linkReferences": {},
  "deployedLinkReferences": {}
}